{
  "abi": [
    {
      "type": "constructor",
      "inputs": [
        {
          "name": "priceFeed",
          "type": "address",
          "internalType": "address"
        }
      ],
      "stateMutability": "nonpayable"
    },
    {
      "type": "function",
      "name": "MINIMUM_USD",
      "inputs": [],
      "outputs": [
        {
          "name": "",
          "type": "uint256",
          "internalType": "uint256"
        }
      ],
      "stateMutability": "view"
    },
    {
      "type": "function",
      "name": "cheaperWithdraw",
      "inputs": [],
      "outputs": [],
      "stateMutability": "nonpayable"
    },
    {
      "type": "function",
      "name": "fund",
      "inputs": [],
      "outputs": [],
      "stateMutability": "payable"
    },
    {
      "type": "function",
      "name": "getAddressToAmountFunded",
      "inputs": [
        {
          "name": "fundingAddress",
          "type": "address",
          "internalType": "address"
        }
      ],
      "outputs": [
        {
          "name": "",
          "type": "uint256",
          "internalType": "uint256"
        }
      ],
      "stateMutability": "view"
    },
    {
      "type": "function",
      "name": "getFunder",
      "inputs": [
        {
          "name": "index",
          "type": "uint256",
          "internalType": "uint256"
        }
      ],
      "outputs": [
        {
          "name": "",
          "type": "address",
          "internalType": "address"
        }
      ],
      "stateMutability": "view"
    },
    {
      "type": "function",
      "name": "getOwner",
      "inputs": [],
      "outputs": [
        {
          "name": "",
          "type": "address",
          "internalType": "address"
        }
      ],
      "stateMutability": "view"
    },
    {
      "type": "function",
      "name": "getPriceFeed",
      "inputs": [],
      "outputs": [
        {
          "name": "",
          "type": "address",
          "internalType": "contract AggregatorV3Interface"
        }
      ],
      "stateMutability": "view"
    },
    {
      "type": "function",
      "name": "getVersion",
      "inputs": [],
      "outputs": [
        {
          "name": "",
          "type": "uint256",
          "internalType": "uint256"
        }
      ],
      "stateMutability": "view"
    },
    {
      "type": "error",
      "name": "FundMe__NotOwner",
      "inputs": []
    }
  ],
  "bytecode": {
    "object": "0x60a060405234801561001057600080fd5b50604051620010043803806200100483398181016040528101906100349190610112565b80600260006101000a81548173ffffffffffffffffffffffffffffffffffffffff021916908373ffffffffffffffffffffffffffffffffffffffff1602179055503373ffffffffffffffffffffffffffffffffffffffff1660808173ffffffffffffffffffffffffffffffffffffffff16815250505061013f565b600080fd5b600073ffffffffffffffffffffffffffffffffffffffff82169050919050565b60006100df826100b4565b9050919050565b6100ef816100d4565b81146100fa57600080fd5b50565b60008151905061010c816100e6565b92915050565b600060208284031215610128576101276100af565b5b6000610136848285016100fd565b91505092915050565b608051610e9b62000169600039600081816102b80152818161044201526106380152610e9b6000f3fe60806040526004361061007b5760003560e01c80639e87a5cd1161004e5780639e87a5cd1461013e578063b60d428814610169578063be2693f014610173578063d7b4750c1461018a5761007b565b80630343fb25146100805780630d8e6e2c146100bd5780636b69a592146100e8578063893d20e814610113575b600080fd5b34801561008c57600080fd5b506100a760048036038101906100a291906108ec565b6101c7565b6040516100b49190610932565b60405180910390f35b3480156100c957600080fd5b506100d2610210565b6040516100df9190610932565b60405180910390f35b3480156100f457600080fd5b506100fd6102a8565b60405161010a9190610932565b60405180910390f35b34801561011f57600080fd5b506101286102b4565b604051610135919061095c565b60405180910390f35b34801561014a57600080fd5b506101536102dc565b60405161016091906109d6565b60405180910390f35b610171610306565b005b34801561017f57600080fd5b50610188610440565b005b34801561019657600080fd5b506101b160048036038101906101ac9190610a1d565b6106ce565b6040516101be919061095c565b60405180910390f35b6000600160008373ffffffffffffffffffffffffffffffffffffffff1673ffffffffffffffffffffffffffffffffffffffff168152602001908152602001600020549050919050565b6000600260009054906101000a900473ffffffffffffffffffffffffffffffffffffffff1673ffffffffffffffffffffffffffffffffffffffff166354fd4d506040518163ffffffff1660e01b8152600401602060405180830381865afa15801561027f573d6000803e3d6000fd5b505050506040513d601f19601f820116820180604052508101906102a39190610a5f565b905090565b674563918244f4000081565b60007f0000000000000000000000000000000000000000000000000000000000000000905090565b6000600260009054906101000a900473ffffffffffffffffffffffffffffffffffffffff16905090565b674563918244f40000610344600260009054906101000a900473ffffffffffffffffffffffffffffffffffffffff163461071590919063ffffffff16565b1015610385576040517f08c379a000000000000000000000000000000000000000000000000000000000815260040161037c90610ae9565b60405180910390fd5b34600160003373ffffffffffffffffffffffffffffffffffffffff1673ffffffffffffffffffffffffffffffffffffffff16815260200190815260200160002060008282546103d49190610b38565b925050819055506000339080600181540180825580915050600190039060005260206000200160009091909190916101000a81548173ffffffffffffffffffffffffffffffffffffffff021916908373ffffffffffffffffffffffffffffffffffffffff160217905550565b7f000000000000000000000000000000000000000000000000000000000000000073ffffffffffffffffffffffffffffffffffffffff163373ffffffffffffffffffffffffffffffffffffffff16146104c5576040517f579610db00000000000000000000000000000000000000000000000000000000815260040160405180910390fd5b60008080548060200260200160405190810160405280929190818152602001828054801561054857602002820191906000526020600020905b8160009054906101000a900473ffffffffffffffffffffffffffffffffffffffff1673ffffffffffffffffffffffffffffffffffffffff16815260200190600101908083116104fe575b5050505050905060005b81518110156105d35760008282815181106105705761056f610b6c565b5b602002602001015190506000600160008373ffffffffffffffffffffffffffffffffffffffff1673ffffffffffffffffffffffffffffffffffffffff168152602001908152602001600020819055505080806105cb90610b9b565b915050610552565b50600067ffffffffffffffff8111156105ef576105ee610be3565b5b60405190808252806020026020018201604052801561061d5781602001602082028036833780820191505090505b50600090805190602001906106339291906107e2565b5060007f000000000000000000000000000000000000000000000000000000000000000073ffffffffffffffffffffffffffffffffffffffff164760405161067a90610c43565b60006040518083038185875af1925050503d80600081146106b7576040519150601f19603f3d011682016040523d82523d6000602084013e6106bc565b606091505b50509050806106ca57600080fd5b5050565b60008082815481106106e3576106e2610b6c565b5b9060005260206000200160009054906101000a900473ffffffffffffffffffffffffffffffffffffffff169050919050565b60008061072183610751565b90506000670de0b6b3a7640000858361073a9190610c58565b6107449190610cc9565b9050809250505092915050565b6000808273ffffffffffffffffffffffffffffffffffffffff1663feaf968c6040518163ffffffff1660e01b815260040160a060405180830381865afa15801561079f573d6000803e3d6000fd5b505050506040513d601f19601f820116820180604052508101906107c39190610d72565b5050509150506402540be400816107da9190610ded565b915050919050565b82805482825590600052602060002090810192821561085b579160200282015b8281111561085a5782518260006101000a81548173ffffffffffffffffffffffffffffffffffffffff021916908373ffffffffffffffffffffffffffffffffffffffff16021790555091602001919060010190610802565b5b509050610868919061086c565b5090565b5b8082111561088557600081600090555060010161086d565b5090565b600080fd5b600073ffffffffffffffffffffffffffffffffffffffff82169050919050565b60006108b98261088e565b9050919050565b6108c9816108ae565b81146108d457600080fd5b50565b6000813590506108e6816108c0565b92915050565b60006020828403121561090257610901610889565b5b6000610910848285016108d7565b91505092915050565b6000819050919050565b61092c81610919565b82525050565b60006020820190506109476000830184610923565b92915050565b610956816108ae565b82525050565b6000602082019050610971600083018461094d565b92915050565b6000819050919050565b600061099c6109976109928461088e565b610977565b61088e565b9050919050565b60006109ae82610981565b9050919050565b60006109c0826109a3565b9050919050565b6109d0816109b5565b82525050565b60006020820190506109eb60008301846109c7565b92915050565b6109fa81610919565b8114610a0557600080fd5b50565b600081359050610a17816109f1565b92915050565b600060208284031215610a3357610a32610889565b5b6000610a4184828501610a08565b91505092915050565b600081519050610a59816109f1565b92915050565b600060208284031215610a7557610a74610889565b5b6000610a8384828501610a4a565b91505092915050565b600082825260208201905092915050565b7f596f75206e65656420746f207370656e64206d6f726520455448210000000000600082015250565b6000610ad3601b83610a8c565b9150610ade82610a9d565b602082019050919050565b60006020820190508181036000830152610b0281610ac6565b9050919050565b7f4e487b7100000000000000000000000000000000000000000000000000000000600052601160045260246000fd5b6000610b4382610919565b9150610b4e83610919565b9250828201905080821115610b6657610b65610b09565b5b92915050565b7f4e487b7100000000000000000000000000000000000000000000000000000000600052603260045260246000fd5b6000610ba682610919565b91507fffffffffffffffffffffffffffffffffffffffffffffffffffffffffffffffff8203610bd857610bd7610b09565b5b600182019050919050565b7f4e487b7100000000000000000000000000000000000000000000000000000000600052604160045260246000fd5b600081905092915050565b50565b6000610c2d600083610c12565b9150610c3882610c1d565b600082019050919050565b6000610c4e82610c20565b9150819050919050565b6000610c6382610919565b9150610c6e83610919565b9250828202610c7c81610919565b91508282048414831517610c9357610c92610b09565b5b5092915050565b7f4e487b7100000000000000000000000000000000000000000000000000000000600052601260045260246000fd5b6000610cd482610919565b9150610cdf83610919565b925082610cef57610cee610c9a565b5b828204905092915050565b600069ffffffffffffffffffff82169050919050565b610d1981610cfa565b8114610d2457600080fd5b50565b600081519050610d3681610d10565b92915050565b6000819050919050565b610d4f81610d3c565b8114610d5a57600080fd5b50565b600081519050610d6c81610d46565b92915050565b600080600080600060a08688031215610d8e57610d8d610889565b5b6000610d9c88828901610d27565b9550506020610dad88828901610d5d565b9450506040610dbe88828901610a4a565b9350506060610dcf88828901610a4a565b9250506080610de088828901610d27565b9150509295509295909350565b6000610df882610d3c565b9150610e0383610d3c565b9250828202610e1181610d3c565b91507f80000000000000000000000000000000000000000000000000000000000000008414600084121615610e4957610e48610b09565b5b8282058414831517610e5e57610e5d610b09565b5b509291505056fea264697066735822122020d3cac0764fc53570a677c8175870d86ca6b31e766af7611d85f1a1e4f8822f64736f6c63430008130033",
    "linkReferences": {}
  },
  "methodIdentifiers": {
    "MINIMUM_USD()": "6b69a592",
    "cheaperWithdraw()": "be2693f0",
    "fund()": "b60d4288",
    "getAddressToAmountFunded(address)": "0343fb25",
    "getFunder(uint256)": "d7b4750c",
    "getOwner()": "893d20e8",
    "getPriceFeed()": "9e87a5cd",
    "getVersion()": "0d8e6e2c"
  },
  "id": 17
}